:100000000C942A000C9400000C9400000C94000046
:100010000C9400000C9400000C9400000C94000060
:100020000C9400000C9400000C9400000C94000050
:100030000C9400000C9400000C9400000C94000040
:100040000C9400000C9400000C9400000C94000030
:100050000C940000F894EE27ECBBF1E0FBBFEBBF83
:10006000E5BF8DE0A2E0BB27ED938A95E9F780E03C
:1000700098E0A0E6ED930197E9F7EFE5EDBFE8E042
:10008000EEBFC0E6D2E00C944500EFEFEABBE0E043
:10009000EBBB11D010D0E2E014D0E4E012D0E8E0E5
:1000A00010D0E0E10ED0E0E20CD0E0E40AD0E0E8CD
:1000B00008D0EFCFFFCFE1E0EBBBA4EFB1E00C94B1
:1000C0006600EBBBA4EFB1E00C946600109639F02B
:1000D0008AEF90E00197F1F7A8951197C9F7089575
:00000001FF
